:020000040000FA
:0400000000001028C4
:08000800FD000308FE000A08D8
:10001000FF007F088A007E088300FD0E7D0E090028
:100020000313831606108610061186110612861217
:100030000613861303138312061436200610861443
:1000400036208610061536200611861536208611B4
:100050000616362006128616362086120617362019
:10006000061386173620861336201C281530A0006C
:100070007430A1000630A200A00B3F28A10B41283C
:0A008000A20B3C2843284428080086
:02400E00723FFF
:00000001FF
